:020000040000FA
:04000000813194298D
:1000060001347E1480314E01961E0A280B281028D2
:100016008C1E0E280F2810288C12161C1328142844
:1000260022280C1C1728182822280C1040010D1F06
:100036001D281E282028E9012228E901E90A0B1FAC
:100046002528262885294E01991E2A282B28852908
:100056008F1E2E282F2885298B317C238031F9008D
:100066007D08A83E86008701790881007D08A83EA4
:10007600860087010A3001060319422843284D28C5
:100086007D08A83E860087013A300106031D4C28EC
:100096004D287A297E30F0008830F1007D08FF3E39
:1000A600F200FF3003180030F300A8308F31A82784
:1000B600803170087104031D612862286B280330A3
:1000C6007D02031C672868286B284001E801E80ABE
:1000D6007630F0008830F1007D08FF3EF200FF30F8
:1000E60003180030F300A8308F31A827803170083C
:1000F6007104031D7F288028892803307D02031C94
:100106008528862889284001E601E60A5830F0004D
:100116008830F1007D08FF3EF200FF300318003002
:10012600F300A8308F31A827803170087104031DB1
:100136009D289E28A72807307D02031CA328A428F3
:10014600A7284001E501E50A6230F0008830F10099
:100156007D08FF3EF200FF3003180030F300A830A0
:100166008F31A827803170087104031DBB28BC2875
:10017600C42803307D02031CC128C228C428FC0100
:10018600FC0A0E30F0008830F1007D08FF3EF200D8
:10019600FF3003180030F300A8308F31A8278031D4
:1001A60070087104031DD828D928E22807307D027B
:1001B600031CDE28DF28E2284001E401E40A82303D
:1001C600F0008830F1007D08FF3EF200FF30031892
:1001D6000030F300A8308F31A827803170087104F1
:1001E600031DF628F728002903307D02031CFC288E
:1001F600FD2800294001E701E70A7A30F00088303F
:10020600F1007D08FF3EF200FF3003180030F300D6
:10021600A8308F31A827803170087104031D142976
:1002260015291E2903307D02031C1A291B291E29A4
:100236004001E201E20A7230F0008830F1007D08E8
:10024600FD3EF200FF3003180030F300A8308F3176
:10025600A827803170087104031D322933297829B3
:1002660003307D02031C3829392978297D08A53EEB
:100276008600870130300106031D4229432947299C
:100286004001E101E10AFB017D08A53E86008701E8
:1002960031300106031D5029512956294001E1013B
:1002A600E10AFB01FB0A7D08A53E86008701323084
:1002B6000106031D5F29602967294001E101E10A62
:1002C6000230F9007908FB007D08A53E860087010B
:1002D60033300106031D7029712978294001E10197
:1002E600E10A0330F9007908FB00FD018529133086
:1002F6007D02031C7F298029812978290130F90094
:100306007908FD074E019A1C89298A299229901C91
:100316008D298E29922990108D31792580317E1074
:10032600090081319629803103208131EC002E307D
:1003360084008B308500BC30860000308700083092
:100346008B3128238131FA01FB01FC01FD01583074
:1003560084000030850014308B3122238131A03097
:100366008400003085001C308B31222381317E10C1
:1003760040018D31462D400131088039B6003608DE
:10038600BB003135B6003608C100B01FCB29CC29D9
:10039600CD29411441080319D129D229E129410A5D
:1003A600031DD629D729DF290030B1000030B0005F
:1003B6000030AF000030AE00B017E9290030B100C0
:1003C6000030B0000030AF000030AE003508803994
:1003D600B6003608BB063535B6003608C000B41F71
:1003E600F529F629F729401440080319FB29FC29A9
:1003F6000B2A400A031D002A012A092A0030B500EB
:100406000030B4000030B3000030B200B417132A35
:100416000030B5000030B4000030B3000030B20048
:1004260040080319172A182A1D2A4108031D1C2AE9
:100436001D2A262A0030B1000030B0000030AF007F
:100446000030AE00142C2E08B6003608A000340882
:100456008C316724813140012108C7002008C6007D
:100466004608B600B701B801B9013908BF00380817
:10047600BE003708BD003608BC004708B600B70105
:10048600B801B9013908C5003808C4003708C300E7
:100496003608C2002F08B6003608A00033088C3193
:1004A6006724813140012108C7002008C60046089C
:1004B600B600B701B801B9013608BC073708BD3D1B
:1004C6003808BE3D3908BF3D4708B600B701B80138
:1004D600B9013608C2073708C33D3808C43D390894
:1004E600C53D3008B6003608A00032088C316724B6
:1004F600813140012108C7002008C6004608B60021
:10050600B701B801B9013608BC073708BD3D380840
:10051600BE3D3908BF3D4708B600B701B801B9016D
:100526003608C2073708C33D3808C43D3908C53DFB
:100536000830BC35BD0DBE0DBF0D890B9C2A2F089A
:10054600B6003608A00032088C316724813140019C
:100556002108C7002008C6004608BC074708BD3D5D
:100566000030BE3DBF3D2E08B6003608A000330859
:100576008C316724813140012108C7002008C6005C
:100586004608BC074708BD3D0030BE3DBF3D0830AC
:10059600BC35BD0DBE0DBF0D890BCB2A2E08B6008E
:1005A6003608A00032088C316724813140012108C9
:1005B600C7002008C6004608BC074708BD3D0030F6
:1005C600BE3DBF3D2F08B6003608A00034088C316A
:1005D6006724813140012108C7002008C60046086B
:1005E600C2074708C33D0030C43DC53D3008B600CC
:1005F6003608A00033088C31672481314001210878
:10060600C7002008C6004608C2074708C33D003099
:10061600C43DC53D3008B6003608A00034088C310C
:100626006724813140012108C7002008C60046081A
:10063600B6004708B700B801B9010830B635B70D9E
:10064600B80DB90D890B212B3608C2073708C33DF3
:100656003808C43D3908C53D3C08B6003D08B7001A
:100666003E08B8003F08B9001830B936B80CB70CC8
:10067600B60C890B382B3608C2073708C33D380835
:10068600C43D3908C53D0830BC35BD0DBE0DBF0D96
:10069600890B472B41084007B600B701B70D36084E
:1006A600823EC600FF30373DC700702B0130C23591
:1006B600C30DC40DC50D890B5A2BBF1F632B642BAD
:1006C600652B42140130BC35BD0DBE0DBF0D890B27
:1006D600662BFF30C607FF30C73DC41F732B742B34
:1006E600592BC001BF1F782B792B952BFF303C056A
:1006F600B600FF303D05B700FF303E05B8007F303D
:100706003F05B900390838043704360403198C2B21
:100716008D2B902BC001C00A952B421C932B942B3A
:10072600952B8D2B40080319992B9A2BC22B013040
:10073600C2070030C33D0030C43D0030C53D451CF6
:10074600A52BA62BC22B4208B6004308B7004408C7
:10075600B8004508B9000130BA00B937B80CB70C73
:10076600B60CBA0BB02B3908C5003808C4003708D8
:10077600C3003608C2000130C6070030C73D47082F
:10078600803AB60080303602031DCB2BFF3046027E
:10079600031CCE2BCF2BD92B7F304001C5008030D8
:1007A600C4000030C3000030C200082C40014708D6
:1007B600803AB60080303602031DE32B0130460234
:1007C6000318E62BE72BF22B00304001C500003062
:1007D600C4000030C3000030C200BB01082C400139
:1007E6004608B6003608C100FF30C205FF30C30513
:1007F6007F30C4050030C505411C022C032C042C97
:10080600C4174136B6003608C5003B08B6003608A0
:10081600C5044508B1004408B0004308AF004208CB
:10082600AE00080040013208803AB300803033023F
:10083600031D1F2C02303102031C222C232CC82C32
:1008460040013208803AB30080303302031D2D2C5C
:1008560021303102031C302C312C322CC82C4001A3
:100866002E08A1002D08A0008C312F2484314001D0
:100876002108B9002008B800BA01BB01952C32083E
:10088600A1003108A0003908A3003808A2008F3162
:100896005427843140012108B7002008B6003708E4
:1008A600803AB30080303302031D5B2C0A303602D7
:1008B600031C5E2C5F2C742C40013608373EB300B7
:1008C6003A082F07B4003B08303DB50034088600CF
:1008D60035088700330881000130BA070030BB3D78
:1008E600852C40013608303EB3003A082F07B40085
:1008F6003B08303DB50034088600350887003308CC
:1009060081006F2C3208A1003108A0003908A3002D
:100916003808A20087312D27843140012108B9000B
:100926002008B80038083904031D9A2C9B2C422C49
:100936003A083B04031DA02CA12CB12C3A082F0722
:10094600B3003B08303DB400330886003408870006
:10095600303081000130BA070030BB3D3A082F071E
:1009660086003B08303D870081013008A7002F082C
:10097600A6000030A800A9003A08FF3EAA00FF30F2
:100986003B3DAB008C318B24843108004001A8002C
:1009960028080319CF2CD02CE42CA31FD32CD42C3D
:1009A600E42C2009AA002109AB002209AC00230986
:1009B600AD00AA0A0319AB0A0319AC0A0319AD0A5A
:1009C600EC2C2308AD002208AC002108AB0020085F
:1009D600AA002308220421042004031DF32CF42C6E
:1009E600FD2C0030A3000030A2000030A100003032
:1009F600A000752D9630A4002408A9000D2D013005
:100A0600A4002408A9070130AD36AC0CAB0CAA0C27
:100A1600890B072DFE302D05031D122D132D022DDA
:100A2600272D0130A4002408A9070130AA070030A9
:100A3600AB3D0030AC3D0030AD3D0130AD36AC0CC9
:100A4600AB0CAA0C890B212DFF302D05031D2C2D77
:100A56002D2D142D372D0130A9020130AA35AB0DED
:100A6600AC0DAD0D890B312DAC1B3A2D3B2D412D17
:100A7600023029020318402D412D2E2D2918442D10
:100A8600452D4D2DFF30AA05FF30AB057F30AC0557
:100A9600FF30AD050310A90C2908A400A501A60185
:100AA600A7011830A435A50DA60DA70D890B552D48
:100AB6002408AA042508AB042608AC042708AD04BC
:100AC60028080319672D682D6D2DA31F6B2D6C2D1E
:100AD6006D2DAD172D08A3002C08A2002B08A10030
:100AE6002A08A0000800031040014A0D4B0DCC0057
:100AF6004C08D2005208031D812D822D8B2D00300B
:100B0600CB000030CA000030C9000030C800EA2D12
:100B16004808CC004908CD004A08CE004B08CF0053
:100B26001F30CF36CE0CCD0CCC0C890B942D4C0837
:100B3600D0005008D100CA17FF30C805FF30C905DC
:100B4600FF30CA050030CB059630D202D21FAC2D3D
:100B5600AD2DC52D5208803A973E0318B32DB42DFE
:100B6600B52D822D0130CB36CA0CC90CC80C890BA9
:100B7600B62D0130CC004C08D207031DC32DC42D61
:100B8600B52DDA2D20305202031CCA2DCB2DD52DC2
:100B9600822D0130C835C90DCA0DCB0D890BCD2D5F
:100BA6000130D2025208031DD92DDA2DCC2D510861
:100BB6000319DE2DDF2DEA2DC809C909CA09CB099B
:100BC600C80A0319C90A0319CA0A0319CB0A080075
:100BD60064008B31B723853140012108D9002008F4
:100BE600D800640040015808A0005908A100A201DD
:100BF600A30100308431C924853140012308B500A2
:100C06002208B4002108B3002008B2003E30B1002B
:100C16007730B0002F30AF007330AE008131BE2187
:100C2600853140013108CB003008CA002F08C900C1
:100C36002E08C800853176258531400148081C3EBE
:100C4600D3005308DC000A305C0203182B2E2C2E2E
:100C5600472E5C08D300D4015308AD005408AE00FB
:100C66006B08D500D6015508AF005608B000103005
:100C7600B1000030B2008431152485313030400196
:100C8600D3005308EA00592E5C08D300D401530858
:100C9600AD005408AE006A30AF000030B00010302E
:100CA600B1000030B200843115248531080064009B
:100CB6004001DA01DB01B52E40015B08803AAB004A
:100CC60080302B02031D692E0F305A02031C6C2E36
:100CD6006D2E722E8B31982386310130C32EFD3056
:100CE6004001A5008730A600A701A70A8631C426C1
:100CF600863132308B313F23863140018E18842E67
:100D0600852E942E6408031D892E8A2E942E5F0844
:100D1600031D8E2E8F2E942E67080319932E942E64
:100D2600802E8E1C972E982E9D2E8B3198238631E1
:100D36000030C32E5F080319A12EA22EA32E6D2EFE
:100D46006408031DA72EA82EAD2E67080319AC2E26
:100D5600AD2E6D2E8B319823863101304001DA0796
:100D66000030DB3D5B08803AAB0080302B02031D70
:100D7600BE2E11305A02031CC12EC22E5F2E702EBB
:100D8600080040012608A1002508A0008B31DF23BA
:100D9600863140012008A8002808AA002703031D61
:100DA600D52ED62E252FEE2E4E010F1EDB2EDC2E37
:100DB600D72E42019E1CE02EE12ED72E400125089B
:100DC600840026088500000842019A00013040018F
:100DD600A5070030A63D0130AA022A0A031DF42EFB
:100DE600F52ED72E4E010F1EF92EFA2EF52E4201A4
:100DF6009E1CFE2EFF2EF52E0D309A004E010F1E64
:100E0600052F062F012F42019E1C0A2F0B2F012FA3
:100E16000A309A002C2F4E010F1E122F132F0E2F61
:100E260042019E1C172F182F0E2F40012508840003
:100E360026088500000842019A0001304001A507F6
:100E46000030A63D0130AA022A0A031D2B2F2C2FA3
:100E56000E2F08004001A601A11F322F332F3A2F73
:100E6600A009A109A00A0319A10AA601A60AA31F9F
:100E76003D2F3E2F472FA209A309A20A0319A30A51
:100E86000130A4002408A606A701A8012008210411
:100E960003194E2F4F2F7E2FA501A50A5B2F013078
:100EA600A035A10D890B532F0130A4002408A507F6
:100EB600A11F5E2F5F2F522F0130A735A80D890B7A
:100EC600602F21082302031D6A2F20082202031C1B
:100ED6006D2F6E2F732F2008A2022108A33B271423
:100EE6000130A136A00C890B742F0130A502031D19
:100EF6007D2F7E2F5F2F26080319822F832F882FA1
:100F0600A709A809A70A0319A80A2808A1002708FB
:100F1600A0000800640040018E1C922F932FBE2F64
:100F26008030A5008830A600A701A70A8631C4260E
:100F3600873114308B313F23873140016408031D0C
:100F4600A52FA62FB02F5F08031DAA2FAB2FB02FFA
:100F560067080319AF2FB02FA02F64080319B42F09
:100F6600B52FB92F8B3198238731BE2F8B3198231C
:100F760087310130E82F400118111E308B313F2395
:100F8600873140016208031DC92FCA2FD42F5F087D
:100F9600031DCE2FCF2FD42F67080319D32FD42F9D
:100FA600C42F5F08031DD82FD92FB92F670803193F
:100FB600DD2FDE2FDF2FB92F62080319E32FE42F71
:100FC600B92F8B3198238731003008004E019912D2
:100FD6001912903042019D009E131E139E161E127A
:100FE6009E111E1508309F0022309B009C014E0169
:100FF6009916080045342C3430342C3432343434C9
:101006003034413443343434443441344534423446
:1010160036344534003443346F346E346E346534BC
:101026006334743469346F346E34203445346E342A
:101036006434003443345534573456342C34323403
:101046004234303435342C34303430340034433484
:101056005534573456342C343234423430343534E3
:101066002C34303431340034533452342C34393443
:10107600303430343034303430343034303400347A
:1010860043345534573456342C34323441343134A5
:1010960039342C34003443345534523456342C34D9
:1010A6003234423430343634003443346F346E34A0
:1010B6006E3450346134723461346D3400345234D9
:1010C600653462346F346F347434003453344634C8
:1010D6002C343134003452342C343134003452340C
:1010E6002C343034003443344D34443400344534E5
:1010F6004E344434003441344F344B340034453498
:06110600523452340034A3
:10163A004E010C100B1416140800640080010131CD
:10164A00890B232B0034FE0012001E00FE0B292BEF
:10165A00003473342F3477343E344834E13452340E
:10166A004034603051018D008F01910105309300A3
:10167A00920108004001A1002108A0002008FA00F8
:10168A0045018C018E1708004001A0004E010F1E73
:10169A004F2B502B4B2B4001200842019A00080087
:1016AA0045018E138C0100304101A7000030A600CD
:1016BA000030A5000030A400080097304B019F00BD
:1016CA00FF309D009C014E018C12961697304B01FB
:1016DA009E00080045018E138C0100304101A700CD
:1016EA000030A6000030A5000030A40008004E011A
:1016FA008F1E802B812B7C2B42019D1C852B862BD8
:10170A00882B1D121D16190808008B31A7238B314F
:10171A004201920193019401950196019701980162
:10172A008430910008004001E801E601E701E20186
:10173A00FC01E501E401E101DF018B316F238B310B
:10174A006400080041018C018D018E018F01920114
:10175A00930198019A0142018C018D018E018F013A
:10176A0090010800133041019F00420191171113A3
:10177A0011141118C12BC22BBE2B41011E084001A6
:10178A00A10041011D084001A000080001304501E7
:10179A0090008F130F138F16E0308F059101F030F0
:1017AA008D008C014E0190109A14FC3045018E0078
:1017BA008E13080040012108A4002008A300E92B89
:1017CA000130A0070030A13D2008840021088500CF
:1017DA001200031DF12BF22BE52B23082002A00097
:1017EA002408213BA100080040019212941314130B
:1017FA0094151211181194149317131714110F300A
:10180A007E01A40015307D01CB000F3090007E01CF
:10181A00CF164F16B8010830CE00C30108008B312D
:10182A00F9238C314E0116148B170B170B148B31BD
:10183A0036238C318731E9278C318B311D238C314A
:10184A008B318A238C318B31CB238C318B316223C0
:10185A008C31080040012108803AA200803022021F
:10186A00031D392C0130200203183C2C3D2C4A2C34
:10187A0040012009A2002109A300A20A0319A30A10
:10188A002208A0002308A1004A2C080040012008D1
:10189A008600210887000108A4002408A500220860
:1018AA008600230887000108A40020088600210872
:1018BA00870024088100220886002308870025085B
:1018CA00810008004001A800A401A5012008A20087
:1018DA00A3012208A6002308A700281C752C762C31
:1018EA007A2C2608A4072708A53D0130A635A70D9E
:1018FA00890B7B2C0310A80C2808031D852C862C29
:10190A00722C2508A1002408A0000800A52C40017B
:10191A0028082607A0002908273DA1002A0826072B
:10192A00A2002B08273DA3008C314B248C31FF30B9
:10193A004001AA07FF30AB3D0130A8070030A93D9E
:10194A0040012908803AAC002B08803A2C02031D7A
:10195A00B02C2A082802031CB32CB42C8C2C0800A7
:10196A00640040011A1503304001A1000830A000AC
:10197A007730890BBE2CA00BBE2CA10BBE2C4001CC
:10198A001A1102304001A1000430A000BA30890BBC
:10199A00CC2CA00BCC2CA10BCC2C000040011A158E
:1019AA0003304001A1000830A0007730890BDB2CFE
:1019BA00A00BDB2CA10BDB2C40011A1108006400E0
:1019CA000A308B313F238C31400118156608031DFC
:1019DA00EF2CF02CFA2C5F08031DF42CF52CFA2CB2
:1019EA0067080319F92CFA2CEB2C5F08031DFE2C4F
:1019FA00FF2C042D67080319032D042D092D8B31A3
:101A0A0098238C310130122D660803190D2D0E2DE5
:101A1A00042D8B3198238C310030080064004E303D
:101A2A004001A5008830A600A701A70A8631C4266E
:101A3A008D311E308B313F238D3140016108031DEA
:101A4A00272D282D372D6408031D2C2D2D2D372DDC
:101A5A005F08031D312D322D372D67080319362DE6
:101A6A00372D222D610803193B2D3C2D412D8B3139
:101A7A0098238D310030452D8B3198238D310130DB
:101A8A0008008C3114248D3140011A179A13D7019A
:101A9A008C31B5248D318E31BB268D316400853170
:101AAA00EB258D31400198168E3177268D31003A1B
:101ABA000319602D612D732D87318D278D310A30E1
:101ACA0040015702031C6A2D6B2D732D8F3101279C
:101ADA008D3187318D278D314001D7014001981210
:101AEA006300532D813194297A08F000F101F20143
:101AFA00F30101304101A4070030A53D0030A63DA5
:101B0A000030A73D73082702031D952D720826028F
:101B1A00031D952D71082502031D952D70082402B9
:101B2A00031C982D992DA92D4001DF01DF0A0030F1
:101B3A004101A7000030A6000030A5000030A40033
:101B4A008B3155238D31B12D0130A4070030A53DCD
:101B5A000030A63D0030A73D640008004001690836
:101B6A000319B82DB92DD32D7B08031DBD2DBE2D0C
:101B7A00C12DE301E30AEB2D02307B06031DC62DBE
:101B8A00C72DCB2DE301E30AE901EB2D03307B06D8
:101B9A00031DD02DD12DD22DBE2DEB2D7B03031D80
:101BAA00D72DD82DD92DBE2D03307B06031DDE2D52
:101BBA00DF2DE42DE301E30AE901E90AEB2D023006
:101BCA007B06031DE92DEA2DEB2DBE2D690C031CA6
:101BDA009A1303189A170800640040016903031D49
:101BEA00F72DF82D022E2A30A5008830A600A7016D
:101BFA00A70A8631C4268D310B2E1D30A5008830E8
:101C0A00A600A701A70A8631C4268D311E308B3162
:101C1A003F238D3140016808031D142E152E242EF2
:101C2A005F08031D192E1A2E242E6708031D1E2E67
:101C3A001F2E242E64080319232E242E0F2E680823
:101C4A000319282E292E2E2E8B3198238D31003000
:101C5A00322E8B3198238D310130080064004330D5
:101C6A004001A5008830A600A7018631C4268E311E
:101C7A0040016A088B3149238E3140016B088B3150
:101C8A0049238E310A308B3149238E310D308B3105
:101C9A0049238E311E308B313F238E314001680833
:101CAA00031D582E592E682E5F08031D5D2E5E2EC9
:101CBA00682E6708031D622E632E682E64080319B6
:101CCA00672E682E532E680803196C2E6D2E722EFD
:101CDA008B3198238E310030762E8B3198238E31BA
:101CEA00013008008C31E4248E31003A03197E2E2B
:101CFA007F2E812E0130BA2E86315A268E31003A35
:101D0A000319882E892E8A2E7F2E40016308031913
:101D1A008F2E902E9B2E8D31F1258E31003A03198C
:101D2A00972E982E992E7F2E4001E3018E3133266D
:101D3A008E31003A0319A22EA32EA42E7F2E8D31A6
:101D4A0013258E31003A0319AB2EAC2EAD2E7F2E01
:101D5A0087318D278E31003A0319B42EB52EB62E4F
:101D6A007F2E8D31B3258E3100300800640040018A
:101D7A00181118151A141A1066080319C52EC62E3A
:101D8A00C12E8B3198238E3169304001A5008830ED
:101D9A00A600A701A70A8631C4268E314001680829
:101DAA000319D82ED92ED32E8B3198238E31373062
:101DBA004001A5008830A600A701A70A8631C426DB
:101DCA008E31400168080319EB2EEC2EE62E8B317A
:101DDA0098238E316E304001A5008830A600A701F5
:101DEA00A70A8631C4268E31400166080319FE2EE1
:101DFA00FF2EF92E6400080064004001181118151E
:101E0A001A141A10660803190B2F0C2F072F8B317F
:101E1A0098238F31640069304001A5008830A600FC
:101E2A00A701A70A8631C4268F3140016808031921
:101E3A001F2F202F1A2F8B3198238F3164003730B0
:101E4A004001A5008830A600A701A70A8631C4264A
:101E5A008F31400168080319332F342F2E2F8B310D
:101E6A0098238F3164006E304001A5008830A600A7
:101E7A00A701A70A8631C4268F31400166080319D3
:101E8A00472F482F422F8B3198238F31640040010E
:101E9A00181162080319522F532F4E2F08004001C0
:101EAA00A601A31F592F5A2F612FA209A309A20A1B
:101EBA000319A30AA601A60AA11F642F652F6A2F78
:101ECA00A009A109A00A0319A10A200821040319DB
:101EDA006F2F702F992FA501A50A7C2F0130A035ED
:101EEA00A10D890B742F0130A4002408A507A11F96
:101EFA007F2F802F732F21082302031D862F20088E
:101F0A002202031C892F8A2F8E2F2008A202210861
:101F1A00A33B0130A136A00C890B8F2F0130A502FB
:101F2A00031D982F992F802F260803199D2F9E2F66
:101F3A00A32FA209A309A20A0319A30A2308A1002D
:101F4A002208A0000800F8007808F4007408F700D6
:101F5A007108F6007008F5000130F2020030F33B18
:101F6A00720A031DBC2F730A031DBC2FBD2FCC2F71
:101F7A00F001F101FF2F0130F4007408F707013076
:101F8A00F5070030F63D0130F2020030F33B7708E6
:101F9A008600870101080319D32FD42FF22F750861
:101FAA0084007608850012000319DC2FDD2FF22F3A
:101FBA00720873040319E22FE32FF22F75088400C5
:101FCA00760885000008F400770886008701010872
:101FDA0074060319F12FF22FC02F770886008701A4
:101FEA00750884007608850000080102F000F101F6
:061FFA00031CF1030800C6
:020000040001F9
:0A000E00EC3FFF3FFF3FFF3FFF3FC5
:00000001FF
